{"abi":[{"inputs":[{"internalType":"uint256","name":"_totalSpots","type":"uint256"},{"internalType":"uint256","name":"_slotPrice","type":"uint256"}],"stateMutability":"nonpayable","type":"constructor","name":"constructor"},{"anonymous":false,"inputs":[{"indexed":false,"internalType":"uint256","name":"amount","type":"uint256"},{"indexed":false,"internalType":"address","name":"to","type":"address"}],"name":"FundsRetrieved","type":"event"},{"anonymous":false,"inputs":[{"indexed":true,"internalType":"address","name":"user","type":"address"},{"indexed":false,"internalType":"uint256","name":"spotId","type":"uint256"},{"indexed":false,"internalType":"uint256","name":"date","type":"uint256"},{"indexed":false,"internalType":"uint256","name":"startSlot","type":"uint256"},{"indexed":false,"internalType":"uint256","name":"endSlot","type":"uint256"},{"indexed":false,"internalType":"bytes32","name":"accessCode","type":"bytes32"}],"name":"Reserved","type":"event"},{"inputs":[{"internalType":"uint256","name":"","type":"uint256"}],"name":"allReservations","outputs":[{"internalType":"uint256","name":"spotId","type":"uint256"},{"internalType":"uint256","name":"date","type":"uint256"},{"internalType":"uint256","name":"startSlot","type":"uint256"},{"internalType":"uint256","name":"endSlot","type":"uint256"},{"internalType":"bytes32","name":"accessCode","type":"bytes32"}],"stateMutability":"view","type":"function"},{"inputs":[{"internalType":"uint256","name":"spotId","type":"uint256"},{"internalType":"uint256","name":"date","type":"uint256"},{"internalType":"uint256","name":"startSlot","type":"uint256"},{"internalType":"uint256","name":"endSlot","type":"uint256"}],"name":"cancelReservation","outputs":[],"stateMutability":"nonpayable","type":"function"},{"inputs":[{"internalType":"uint256","name":"date","type":"uint256"},{"internalType":"uint256","name":"startSlot","type":"uint256"},{"internalType":"uint256","name":"endSlot","type":"uint256"}],"name":"checkSpotAvailability","outputs":[{"internalType":"bool[]","name":"","type":"bool[]"}],"stateMutability":"view","type":"function"},{"inputs":[{"internalType":"uint256","name":"spotId","type":"uint256"},{"internalType":"uint256","name":"date","type":"uint256"},{"internalType":"uint256","name":"timeSlot","type":"uint256"}],"name":"getAccessCode","outputs":[{"internalType":"bytes32","name":"","type":"bytes32"}],"stateMutability":"view","type":"function"},{"inputs":[],"name":"getRegisteredUsers","outputs":[{"internalType":"address[]","name":"","type":"address[]"}],"stateMutability":"view","type":"function"},{"inputs":[{"internalType":"address","name":"user","type":"address"}],"name":"getUserReservations","outputs":[{"components":[{"internalType":"uint256","name":"spotId","type":"uint256"},{"internalType":"uint256","name":"date","type":"uint256"},{"internalType":"uint256","name":"startSlot","type":"uint256"},{"internalType":"uint256","name":"endSlot","type":"uint256"},{"internalType":"bytes32","name":"accessCode","type":"bytes32"}],"internalType":"struct SmartCarPark.ReservationInfo[]","name":"","type":"tuple[]"}],"stateMutability":"view","type":"function"},{"inputs":[],"name":"owner","outputs":[{"internalType":"address","name":"","type":"address"}],"stateMutability":"view","type":"function"},{"inputs":[{"internalType":"address","name":"user","type":"address"}],"name":"registerUser","outputs":[],"stateMutability":"nonpayable","type":"function"},{"inputs":[{"internalType":"address","name":"","type":"address"}],"name":"registeredUsers","outputs":[{"internalType":"bool","name":"","type":"bool"}],"stateMutability":"view","type":"function"},{"inputs":[{"internalType":"address","name":"user","type":"address"}],"name":"removeUser","outputs":[],"stateMutability":"nonpayable","type":"function"},{"inputs":[{"internalType":"uint256","name":"","type":"uint256"},{"internalType":"uint256","name":"","type":"uint256"},{"internalType":"uint256","name":"","type":"uint256"}],"name":"reservations","outputs":[{"internalType":"address","name":"user","type":"address"},{"internalType":"bool","name":"isReserved","type":"bool"},{"internalType":"bytes32","name":"accessCode","type":"bytes32"}],"stateMutability":"view","type":"function"},{"inputs":[{"internalType":"uint256","name":"spotId","type":"uint256"},{"internalType":"uint256","name":"date","type":"uint256"},{"internalType":"uint256","name":"startSlot","type":"uint256"},{"internalType":"uint256","name":"endSlot","type":"uint256"}],"name":"reserveSpot","outputs":[{"internalType":"bytes32","name":"","type":"bytes32"}],"stateMutability":"payable","type":"function"},{"inputs":[],"name":"retrievePayments","outputs":[],"stateMutability":"nonpayable","type":"function"},{"inputs":[],"name":"slotPrice","outputs":[{"internalType":"uint256","name":"","type":"uint256"}],"stateMutability":"view","type":"function"},{"inputs":[],"name":"totalSpots","outputs":[{"internalType":"uint256","name":"","type":"uint256"}],"stateMutability":"view","type":"function"},{"inputs":[{"internalType":"uint256","name":"","type":"uint256"}],"name":"userList","outputs":[{"internalType":"address","name":"","type":"address"}],"stateMutability":"view","type":"function"},{"inputs":[{"internalType":"address","name":"","type":"address"},{"internalType":"uint256","name":"","type":"uint256"}],"name":"userReservations","outputs":[{"internalType":"uint256","name":"","type":"uint256"}],"stateMutability":"view","type":"function"}],"bytecode":"6080604052348015600f57600080fd5b506040516116dc3803806116dc833981016040819052602c91604b565b600780546001600160a01b03191633179055600591909155600655606e565b60008060408385031215605d57600080fd5b505080516020909101519092909150565b61165f8061007d6000396000f3fe6080604052600436106100fe5760003560e01c8063793087bd116100955780639f4216e8116100645780639f4216e814610337578063c05b8e3714610357578063dc38bd0c14610377578063e212e2ba1461038a578063f75c37291461039f57600080fd5b8063793087bd1461029c5780638da5cb5b146102c95780638df7174314610301578063985751881461031757600080fd5b80632c3cdb96116100d15780632c3cdb96146101ae5780634d5c07f4146101db5780635d4b381b146101fb5780637073c0721461027a57600080fd5b806304e04656146101035780630e50cee51461012c5780631e917a401461016c5780632199d5cd1461018c575b600080fd5b34801561010f57600080fd5b5061011960065481565b6040519081526020015b60405180910390f35b34801561013857600080fd5b5061015c6101473660046113f0565b60016020526000908152604090205460ff1681565b6040519015158152602001610123565b34801561017857600080fd5b50610119610187366004611412565b6103e7565b34801561019857600080fd5b506101ac6101a73660046113f0565b610480565b005b3480156101ba57600080fd5b506101ce6101c9366004611412565b6105a5565b604051610123919061143e565b3480156101e757600080fd5b506101ac6101f6366004611483565b61067f565b34801561020757600080fd5b50610255610216366004611412565b60006020818152938152604080822085529281528281209093528252902080546001909101546001600160a01b03821691600160a01b900460ff169083565b604080516001600160a01b039094168452911515602084015290820152606001610123565b34801561028657600080fd5b5061028f6109d5565b60405161012391906114b5565b3480156102a857600080fd5b506102bc6102b73660046113f0565b610a37565b60405161012391906114f6565b3480156102d557600080fd5b506007546102e9906001600160a01b031681565b6040516001600160a01b039091168152602001610123565b34801561030d57600080fd5b5061011960055481565b34801561032357600080fd5b506101ac6103323660046113f0565b610bd2565b34801561034357600080fd5b506102e961035236600461155e565b610daa565b34801561036357600080fd5b50610119610372366004611577565b610dd4565b610119610385366004611483565b610e05565b34801561039657600080fd5b506101ac611271565b3480156103ab57600080fd5b506103bf6103ba36600461155e565b611393565b604080519586526020860194909452928401919091526060830152608082015260a001610123565b60008381526020818152604080832085845282528083208484529091528120546001600160a01b0316331461045a5760405162461bcd60e51b81526020600482015260146024820152732737ba103cb7bab9103932b9b2b93b30ba34b7b760611b60448201526064015b60405180910390fd5b506000928352602083815260408085209385529281528284209184525290206001015490565b336001600160a01b038216146104d85760405162461bcd60e51b815260206004820152601f60248201527f4f6e6c792074686520757365722063616e2072656769737465722075736572006044820152606401610451565b6001600160a01b03811660009081526001602052604090205460ff16156105415760405162461bcd60e51b815260206004820152601a60248201527f5573657220697320616c726561647920726567697374657265640000000000006044820152606401610451565b6001600160a01b031660008181526001602081905260408220805460ff1916821790556002805491820181559091527f405787fa12a823e0f2b7631cc41b3ba8828b3321ca811111fa75cd3aa3bb5ace0180546001600160a01b0319169091179055565b6060600060055467ffffffffffffffff8111156105c4576105c46115a1565b6040519080825280602002602001820160405280156105ed578160200160208202803683370190505b50905060005b600554811015610676576001855b85811015610649576000838152602081815260408083208b84528252808320848452909152902054600160a01b900460ff16156106415760009150610649565b600101610601565b508083838151811061065d5761065d6115b7565b91151560209283029190910190910152506001016105f3565b50949350505050565b6000825b8281101561076c5760008681526020818152604080832088845282528083208484529091529020546001600160a01b031633146106f95760405162461bcd60e51b81526020600482015260146024820152732737ba103cb7bab9103932b9b2b93b30ba34b7b760611b6044820152606401610451565b60408051606081018252600080825260208083018281528385018381528b84528383528584208b85528352858420878552909252939091209151825493511515600160a01b026001600160a81b03199094166001600160a01b039190911617929092178155905160019182015501610683565b50600061077984846115e3565b90506006548161078991906115fc565b3360009081526003602052604081209193505b815481101561094c578760048383815481106107ba576107ba6115b7565b9060005260206000200154815481106107d5576107d56115b7565b9060005260206000209060050201600001541480156108335750866004838381548110610804576108046115b7565b90600052602060002001548154811061081f5761081f6115b7565b906000526020600020906005020160010154145b801561087e575085600483838154811061084f5761084f6115b7565b90600052602060002001548154811061086a5761086a6115b7565b906000526020600020906005020160020154145b80156108c9575084600483838154811061089a5761089a6115b7565b9060005260206000200154815481106108b5576108b56115b7565b906000526020600020906005020160030154145b1561094457815482906108de906001906115e3565b815481106108ee576108ee6115b7565b906000526020600020015482828154811061090b5761090b6115b7565b90600052602060002001819055508180548061092957610929611613565b6001900381819060005260206000200160009055905561094c565b60010161079c565b50604051339084156108fc029085906000818181858888f1935050505015801561097a573d6000803e3d6000fd5b506040805188815260208101889052908101869052606081018590526000608082015233907ff123de8ad58f6b3e819af19a8a00391447c1f1e365f7072168d71cace311089c9060a00160405180910390a250505050505050565b60606002805480602002602001604051908101604052809291908181526020018280548015610a2d57602002820191906000526020600020905b81546001600160a01b03168152600190910190602001808311610a0f575b5050505050905090565b6001600160a01b0381166000908152600360209081526040808320805482518185028101850190935280835260609493830182828015610a9657602002820191906000526020600020905b815481526020019060010190808311610a82575b505050505090506000815167ffffffffffffffff811115610ab957610ab96115a1565b604051908082528060200260200182016040528015610b1f57816020015b610b0c6040518060a0016040528060008152602001600081526020016000815260200160008152602001600080191681525090565b815260200190600190039081610ad75790505b50905060005b8251811015610bca576004838281518110610b4257610b426115b7565b602002602001015181548110610b5a57610b5a6115b7565b90600052602060002090600502016040518060a001604052908160008201548152602001600182015481526020016002820154815260200160038201548152602001600482015481525050828281518110610bb757610bb76115b7565b6020908102919091010152600101610b25565b509392505050565b336001600160a01b03821614610c2a5760405162461bcd60e51b815260206004820181905260248201527f4f6e6c792074686520757365722063616e2072656d6f76652068696d73656c666044820152606401610451565b6001600160a01b03811660009081526001602052604090205460ff16610c8b5760405162461bcd60e51b8152602060048201526016602482015275155cd95c881a5cc81b9bdd081c9959da5cdd195c995960521b6044820152606401610451565b6001600160a01b0381166000908152600160205260408120805460ff191690555b600254811015610da657816001600160a01b031660028281548110610cd357610cd36115b7565b6000918252602090912001546001600160a01b031603610d9e5760028054610cfd906001906115e3565b81548110610d0d57610d0d6115b7565b600091825260209091200154600280546001600160a01b039092169183908110610d3957610d396115b7565b9060005260206000200160006101000a8154816001600160a01b0302191690836001600160a01b031602179055506002805480610d7857610d78611613565b600082815260209020810160001990810180546001600160a01b03191690550190555050565b600101610cac565b5050565b60028181548110610dba57600080fd5b6000918252602090912001546001600160a01b0316905081565b60036020528160005260406000208181548110610df057600080fd5b90600052602060002001600091509150505481565b3360009081526001602052604081205460ff16610e5a5760405162461bcd60e51b8152602060048201526013602482015272155cd95c881b9bdd081c9959da5cdd195c9959606a1b6044820152606401610451565b828211610e9e5760405162461bcd60e51b8152602060048201526012602482015271496e76616c69642074696d652072616e676560701b6044820152606401610451565b6000610eaa84846115e3565b9050600060065482610ebc91906115fc565b905080341015610f035760405162461bcd60e51b8152602060048201526012602482015271496e73756666696369656e742066756e647360701b6044820152606401610451565b845b8481101561100a576000888152602081815260408083208a84528252808320848452909152902054600160a01b900460ff1615610f975760405162461bcd60e51b815260206004820152602a60248201527f4f6e65206f72206d6f72652074696d65736c6f74732061726520616c726561646044820152691e481c995cd95c9d995960b21b6064820152608401610451565b604080516060810182523381526001602080830182815260008486018181528e82528184528682208e83528452868220888352909352949094209251835494511515600160a01b026001600160a81b03199095166001600160a01b03919091161793909317825591519082015501610f05565b506040516bffffffffffffffffffffffff193360601b166020820152603481018890526054810187905260748101869052609481018590524260b482015260009060d40160408051601f1981840301815291905280516020909101209050855b8581101561109f576000898152602081815260408083208b84528252808320848452909152902060019081018390550161106a565b506040805160a0810182528981526020810189815291810188815260608201888152608083018581526004805460018082018355600083815287517f8a35acfbc15ff81a39ae7d344fd709f28e8600b4aa8c65c6b64bfe7fe36bd19b60059094029384015597517f8a35acfbc15ff81a39ae7d344fd709f28e8600b4aa8c65c6b64bfe7fe36bd19c83015594517f8a35acfbc15ff81a39ae7d344fd709f28e8600b4aa8c65c6b64bfe7fe36bd19d82015592517f8a35acfbc15ff81a39ae7d344fd709f28e8600b4aa8c65c6b64bfe7fe36bd19e84015590517f8a35acfbc15ff81a39ae7d344fd709f28e8600b4aa8c65c6b64bfe7fe36bd19f90920191909155549192916111ae91906115e3565b3360009081526003602090815260408220805460018101825590835291200181905590503484101561121257336108fc6111e886346115e3565b6040518115909202916000818181858888f19350505050158015611210573d6000803e3d6000fd5b505b604080518b8152602081018b9052908101899052606081018890526080810184905233907ff123de8ad58f6b3e819af19a8a00391447c1f1e365f7072168d71cace311089c9060a00160405180910390a2509098975050505050505050565b6007546001600160a01b031633146112cb5760405162461bcd60e51b815260206004820152601760248201527f43616c6c6572206973206e6f7420746865206f776e65720000000000000000006044820152606401610451565b47806113105760405162461bcd60e51b81526020600482015260146024820152734e6f2066756e647320746f20726574726965766560601b6044820152606401610451565b6007546040516001600160a01b039091169082156108fc029083906000818181858888f1935050505015801561134a573d6000803e3d6000fd5b50600754604080518381526001600160a01b0390921660208301527f73ecaead2e8f2145b39b824a5217f4a2f59134c26719b926c5190f973a110dee910160405180910390a150565b600481815481106113a357600080fd5b6000918252602090912060059091020180546001820154600283015460038401546004909401549294509092909185565b80356001600160a01b03811681146113eb57600080fd5b919050565b60006020828403121561140257600080fd5b61140b826113d4565b9392505050565b60008060006060848603121561142757600080fd5b505081359360208301359350604090920135919050565b602080825282518282018190526000918401906040840190835b818110156114785783511515835260209384019390920191600101611458565b509095945050505050565b6000806000806080858703121561149957600080fd5b5050823594602084013594506040840135936060013592509050565b602080825282518282018190526000918401906040840190835b818110156114785783516001600160a01b03168352602093840193909201916001016114cf565b602080825282518282018190526000918401906040840190835b8181101561147857835180518452602081015160208501526040810151604085015260608101516060850152608081015160808501525060a083019250602084019350600181019050611510565b60006020828403121561157057600080fd5b5035919050565b6000806040838503121561158a57600080fd5b611593836113d4565b946020939093013593505050565b634e487b7160e01b600052604160045260246000fd5b634e487b7160e01b600052603260045260246000fd5b634e487b7160e01b600052601160045260246000fd5b818103818111156115f6576115f66115cd565b92915050565b80820281158282048414176115f6576115f66115cd565b634e487b7160e01b600052603160045260246000fdfea264697066735822122060ac89890e0a88e30daba5c3ece4d5398339b1e4b592be18c156d6fef8ec595064736f6c634300081c0033","bytecodeSha1":"2d82b7022473ec128f687c173e95ecc3fea72cbb","compiler":{"evm_version":"istanbul","optimizer":{"enabled":true,"runs":200},"version":"0.8.28+commit.7893614a"},"contractName":"SmartCarPark","language":"Solidity","natspec":{"kind":"dev","methods":{},"version":1},"opcodes":"PUSH1 0x80 PUSH1 0x40 MSTORE PUSH1 0x4 CALLDATASIZE LT PUSH2 0xFE JUMPI PUSH1 0x0 CALLDATALOAD PUSH1 0xE0 SHR DUP1 PUSH4 0x793087BD GT PUSH2 0x95 JUMPI DUP1 PUSH4 0x9F4216E8 GT PUSH2 0x64 JUMPI DUP1 PUSH4 0x9F4216E8 EQ PUSH2 0x337 JUMPI DUP1 PUSH4 0xC05B8E37 EQ PUSH2 0x357 JUMPI DUP1 PUSH4 0xDC38BD0C EQ PUSH2 0x377 JUMPI DUP1 PUSH4 0xE212E2BA EQ PUSH2 0x38A JUMPI DUP1 PUSH4 0xF75C3729 EQ PUSH2 0x39F JUMPI PUSH1 0x0 DUP1 REVERT JUMPDEST DUP1 PUSH4 0x793087BD EQ PUSH2 0x29C JUMPI DUP1 PUSH4 0x8DA5CB5B EQ PUSH2 0x2C9 JUMPI DUP1 PUSH4 0x8DF71743 EQ PUSH2 0x301 JUMPI DUP1 PUSH4 0x98575188 EQ PUSH2 0x317 JUMPI PUSH1 0x0 DUP1 REVERT JUMPDEST DUP1 PUSH4 0x2C3CDB96 GT PUSH2 0xD1 JUMPI DUP1 PUSH4 0x2C3CDB96 EQ PUSH2 0x1AE JUMPI DUP1 PUSH4 0x4D5C07F4 EQ PUSH2 0x1DB JUMPI DUP1 PUSH4 0x5D4B381B EQ PUSH2 0x1FB JUMPI DUP1 PUSH4 0x7073C072 EQ PUSH2 0x27A JUMPI PUSH1 0x0 DUP1 REVERT JUMPDEST DUP1 PUSH4 0x4E04656 EQ PUSH2 0x103 JUMPI DUP1 PUSH4 0xE50CEE5 EQ PUSH2 0x12C JUMPI DUP1 PUSH4 0x1E917A40 EQ PUSH2 0x16C JUMPI DUP1 PUSH4 0x2199D5CD EQ PUSH2 0x18C JUMPI JUMPDEST PUSH1 0x0 DUP1 REVERT JUMPDEST CALLVALUE DUP1 ISZERO PUSH2 0x10F JUMPI PUSH1 0x0 DUP1 REVERT JUMPDEST POP PUSH2 0x119 PUSH1 0x6 SLOAD DUP2 JUMP JUMPDEST PUSH1 0x40 MLOAD SWAP1 DUP2 MSTORE PUSH1 0x20 ADD JUMPDEST PUSH1 0x40 MLOAD DUP1 SWAP2 SUB SWAP1 RETURN JUMPDEST CALLVALUE DUP1 ISZERO PUSH2 0x138 JUMPI PUSH1 0x0 DUP1 REVERT JUMPDEST POP PUSH2 0x15C PUSH2 0x147 CALLDATASIZE PUSH1 0x4 PUSH2 0x13F0 JUMP JUMPDEST PUSH1 0x1 PUSH1 0x20 MSTORE PUSH1 0x0 SWAP1 DUP2 MSTORE PUSH1 0x40 SWAP1 KECCAK256 SLOAD PUSH1 0xFF AND DUP2 JUMP JUMPDEST PUSH1 0x40 MLOAD SWAP1 ISZERO ISZERO DUP2 MSTORE PUSH1 0x20 ADD PUSH2 0x123 JUMP JUMPDEST CALLVALUE DUP1 ISZERO PUSH2 0x178 JUMPI PUSH1 0x0 DUP1 REVERT JUMPDEST POP PUSH2 0x119 PUSH2 0x187 CALLDATASIZE PUSH1 0x4 PUSH2 0x1412 JUMP JUMPDEST PUSH2 0x3E7 JUMP JUMPDEST CALLVALUE DUP1 ISZERO PUSH2 0x198 JUMPI PUSH1 0x0 DUP1 REVERT JUMPDEST POP PUSH2 0x1AC PUSH2 0x1A7 CALLDATASIZE PUSH1 0x4 PUSH2 0x13F0 JUMP JUMPDEST PUSH2 0x480 JUMP JUMPDEST STOP JUMPDEST CALLVALUE DUP1 ISZERO PUSH2 0x1BA JUMPI PUSH1 0x0 DUP1 REVERT JUMPDEST POP PUSH2 0x1CE PUSH2 0x1C9 CALLDATASIZE PUSH1 0x4 PUSH2 0x1412 JUMP JUMPDEST PUSH2 0x5A5 JUMP JUMPDEST PUSH1 0x40 MLOAD PUSH2 0x123 SWAP2 SWAP1 PUSH2 0x143E JUMP JUMPDEST CALLVALUE DUP1 ISZERO PUSH2 0x1E7 JUMPI PUSH1 0x0 DUP1 REVERT JUMPDEST POP PUSH2 0x1AC PUSH2 0x1F6 CALLDATASIZE PUSH1 0x4 PUSH2 0x1483 JUMP JUMPDEST PUSH2 0x67F JUMP JUMPDEST CALLVALUE DUP1 ISZERO PUSH2 0x207 JUMPI PUSH1 0x0 DUP1 REVERT JUMPDEST POP PUSH2 0x255 PUSH2 0x216 CALLDATASIZE PUSH1 0x4 PUSH2 0x1412 JUMP JUMPDEST PUSH1 0x0 PUSH1 0x20 DUP2 DUP2 MSTORE SWAP4 DUP2 MSTORE PUSH1 0x40 DUP1 DUP3 KECCAK256 DUP6 MSTORE SWAP3 DUP2 MSTORE DUP3 DUP2 KECCAK256 SWAP1 SWAP4 MSTORE DUP3 MSTORE SWAP1 KECCAK256 DUP1 SLOAD PUSH1 0x1 SWAP1 SWAP2 ADD SLOAD PUSH1 0x1 PUSH1 0x1 PUSH1 0xA0 SHL SUB DUP3 AND SWAP2 PUSH1 0x1 PUSH1 0xA0 SHL SWAP1 DIV PUSH1 0xFF AND SWAP1 DUP4 JUMP JUMPDEST PUSH1 0x40 DUP1 MLOAD PUSH1 0x1 PUSH1 0x1 PUSH1 0xA0 SHL SUB SWAP1 SWAP5 AND DUP5 MSTORE SWAP2 ISZERO ISZERO PUSH1 0x20 DUP5 ADD MSTORE SWAP1 DUP3 ADD MSTORE PUSH1 0x60 ADD PUSH2 0x123 JUMP JUMPDEST CALLVALUE DUP1 ISZERO PUSH2 0x286 JUMPI PUSH1 0x0 DUP1 REVERT JUMPDEST POP PUSH2 0x28F PUSH2 0x9D5 JUMP JUMPDEST PUSH1 0x40 MLOAD PUSH2 0x123 SWAP2 SWAP1 PUSH2 0x14B5 JUMP JUMPDEST CALLVALUE DUP1 ISZERO PUSH2 0x2A8 JUMPI PUSH1 0x0 DUP1 REVERT JUMPDEST POP PUSH2 0x2BC PUSH2 0x2B7 CALLDATASIZE PUSH1 0x4 PUSH2 0x13F0 JUMP JUMPDEST PUSH2 0xA37 JUMP JUMPDEST PUSH1 0x40 MLOAD PUSH2 0x123 SWAP2 SWAP1 PUSH2 0x14F6 JUMP JUMPDEST CALLVALUE DUP1 ISZERO PUSH2 0x2D5 JUMPI PUSH1 0x0 DUP1 REVERT JUMPDEST POP PUSH1 0x7 SLOAD PUSH2 0x2E9 SWAP1 PUSH1 0x1 PUSH1 0x1 PUSH1 0xA0 SHL SUB AND DUP2 JUMP JUMPDEST PUSH1 0x40 MLOAD PUSH1 0x1 PUSH1 0x1 PUSH1 0xA0 SHL SUB SWAP1 SWAP2 AND DUP2 MSTORE PUSH1 0x20 ADD PUSH2 0x123 JUMP JUMPDEST CALLVALUE DUP1 ISZERO PUSH2 0x30D JUMPI PUSH1 0x0 DUP1 REVERT JUMPDEST POP PUSH2 0x119 PUSH1 0x5 SLOAD DUP2 JUMP JUMPDEST CALLVALUE DUP1 ISZERO PUSH2 0x323 JUMPI PUSH1 0x0 DUP1 REVERT JUMPDEST POP PUSH2 0x1AC PUSH2 0x332 CALLDATASIZE PUSH1 0x4 PUSH2 0x13F0 JUMP JUMPDEST PUSH2 0xBD2 JUMP JUMPDEST CALLVALUE DUP1 ISZERO PUSH2 0x343 JUMPI PUSH1 0x0 DUP1 REVERT JUMPDEST POP PUSH2 0x2E9 PUSH2 0x352 CALLDATASIZE PUSH1 0x4 PUSH2 0x155E JUMP JUMPDEST PUSH2 0xDAA JUMP JUMPDEST CALLVALUE DUP1 ISZERO PUSH2 0x363 JUMPI PUSH1 0x0 DUP1 REVERT JUMPDEST POP PUSH2 0x119 PUSH2 0x372 CALLDATASIZE PUSH1 0x4 PUSH2 0x1577 JUMP JUMPDEST PUSH2 0xDD4 JUMP JUMPDEST PUSH2 0x119 PUSH2 0x385 CALLDATASIZE PUSH1 0x4 PUSH2 0x1483 JUMP JUMPDEST PUSH2 0xE05 JUMP JUMPDEST CALLVALUE DUP1 ISZERO PUSH2 0x396 JUMPI PUSH1 0x0 DUP1 REVERT JUMPDEST POP PUSH2 0x1AC PUSH2 0x1271 JUMP JUMPDEST CALLVALUE DUP1 ISZERO PUSH2 0x3AB JUMPI PUSH1 0x0 DUP1 REVERT JUMPDEST POP PUSH2 0x3BF PUSH2 0x3BA CALLDATASIZE PUSH1 0x4 PUSH2 0x155E JUMP JUMPDEST PUSH2 0x1393 JUMP JUMPDEST PUSH1 0x40 DUP1 MLOAD SWAP6 DUP7 MSTORE PUSH1 0x20 DUP7 ADD SWAP5 SWAP1 SWAP5 MSTORE SWAP3 DUP5 ADD SWAP2 SWAP1 SWAP2 MSTORE PUSH1 0x60 DUP4 ADD MSTORE PUSH1 0x80 DUP3 ADD MSTORE PUSH1 0xA0 ADD PUSH2 0x123 JUMP JUMPDEST PUSH1 0x0 DUP4 DUP2 MSTORE PUSH1 0x20 DUP2 DUP2 MSTORE PUSH1 0x40 DUP1 DUP4 KECCAK256 DUP6 DUP5 MSTORE DUP3 MSTORE DUP1 DUP4 KECCAK256 DUP5 DUP5 MSTORE SWAP1 SWAP2 MSTORE DUP2 KECCAK256 SLOAD PUSH1 0x1 PUSH1 0x1 PUSH1 0xA0 SHL SUB AND CALLER EQ PUSH2 0x45A JUMPI PUSH1 0x40 MLOAD PUSH3 0x461BCD PUSH1 0xE5 SHL DUP2 MSTORE PUSH1 0x20 PUSH1 0x4 DUP3 ADD MSTORE PUSH1 0x14 PUSH1 0x24 DUP3 ADD MSTORE PUSH20 0x2737BA103CB7BAB9103932B9B2B93B30BA34B7B7 PUSH1 0x61 SHL PUSH1 0x44 DUP3 ADD MSTORE PUSH1 0x64 ADD JUMPDEST PUSH1 0x40 MLOAD DUP1 SWAP2 SUB SWAP1 REVERT JUMPDEST POP PUSH1 0x0 SWAP3 DUP4 MSTORE PUSH1 0x20 DUP4 DUP2 MSTORE PUSH1 0x40 DUP1 DUP6 KECCAK256 SWAP4 DUP6 MSTORE SWAP3 DUP2 MSTORE DUP3 DUP5 KECCAK256 SWAP2 DUP5 MSTORE MSTORE SWAP1 KECCAK256 PUSH1 0x1 ADD SLOAD SWAP1 JUMP JUMPDEST CALLER PUSH1 0x1 PUSH1 0x1 PUSH1 0xA0 SHL SUB DUP3 AND EQ PUSH2 0x4D8 JUMPI PUSH1 0x40 MLOAD PUSH3 0x461BCD PUSH1 0xE5 SHL DUP2 MSTORE PUSH1 0x20 PUSH1 0x4 DUP3 ADD MSTORE PUSH1 0x1F PUSH1 0x24 DUP3 ADD MSTORE PUSH32 0x4F6E6C792074686520757365722063616E207265676973746572207573657200 PUSH1 0x44 DUP3 ADD MSTORE PUSH1 0x64 ADD PUSH2 0x451 JUMP JUMPDEST PUSH1 0x1 PUSH1 0x1 PUSH1 0xA0 SHL SUB DUP2 AND PUSH1 0x0 SWAP1 DUP2 MSTORE PUSH1 0x1 PUSH1 0x20 MSTORE PUSH1 0x40 SWAP1 KECCAK256 SLOAD PUSH1 0xFF AND ISZERO PUSH2 0x541 JUMPI PUSH1 0x40 MLOAD PUSH3 0x461BCD PUSH1 0xE5 SHL DUP2 MSTORE PUSH1 0x20 PUSH1 0x4 DUP3 ADD MSTORE PUSH1 0x1A PUSH1 0x24 DUP3 ADD MSTORE PUSH32 0x5573657220697320616C72656164792072656769737465726564000000000000 PUSH1 0x44 DUP3 ADD MSTORE PUSH1 0x64 ADD PUSH2 0x451 JUMP JUMPDEST PUSH1 0x1 PUSH1 0x1 PUSH1 0xA0 SHL SUB AND PUSH1 0x0 DUP2 DUP2 MSTORE PUSH1 0x1 PUSH1 0x20 DUP2 SWAP1 MSTORE PUSH1 0x40 DUP3 KECCAK256 DUP1 SLOAD PUSH1 0xFF NOT AND DUP3 OR SWAP1 SSTORE PUSH1 0x2 DUP1 SLOAD SWAP2 DUP3 ADD DUP2 SSTORE SWAP1 SWAP2 MSTORE PUSH32 0x405787FA12A823E0F2B7631CC41B3BA8828B3321CA811111FA75CD3AA3BB5ACE ADD DUP1 SLOAD PUSH1 0x1 PUSH1 0x1 PUSH1 0xA0 SHL SUB NOT AND SWAP1 SWAP2 OR SWAP1 SSTORE JUMP JUMPDEST PUSH1 0x60 PUSH1 0x0 PUSH1 0x5 SLOAD PUSH8 0xFFFFFFFFFFFFFFFF DUP2 GT ISZERO PUSH2 0x5C4 JUMPI PUSH2 0x5C4 PUSH2 0x15A1 JUMP JUMPDEST PUSH1 0x40 MLOAD SWAP1 DUP1 DUP3 MSTORE DUP1 PUSH1 0x20 MUL PUSH1 0x20 ADD DUP3 ADD PUSH1 0x40 MSTORE DUP1 ISZERO PUSH2 0x5ED JUMPI DUP2 PUSH1 0x20 ADD PUSH1 0x20 DUP3 MUL DUP1 CALLDATASIZE DUP4 CALLDATACOPY ADD SWAP1 POP JUMPDEST POP SWAP1 POP PUSH1 0x0 JUMPDEST PUSH1 0x5 SLOAD DUP2 LT ISZERO PUSH2 0x676 JUMPI PUSH1 0x1 DUP6 JUMPDEST DUP6 DUP2 LT ISZERO PUSH2 0x649 JUMPI PUSH1 0x0 DUP4 DUP2 MSTORE PUSH1 0x20 DUP2 DUP2 MSTORE PUSH1 0x40 DUP1 DUP4 KECCAK256 DUP12 DUP5 MSTORE DUP3 MSTORE DUP1 DUP4 KECCAK256 DUP5 DUP5 MSTORE SWAP1 SWAP2 MSTORE SWAP1 KECCAK256 SLOAD PUSH1 0x1 PUSH1 0xA0 SHL SWAP1 DIV PUSH1 0xFF AND ISZERO PUSH2 0x641 JUMPI PUSH1 0x0 SWAP2 POP PUSH2 0x649 JUMP JUMPDEST PUSH1 0x1 ADD PUSH2 0x601 JUMP JUMPDEST POP DUP1 DUP4 DUP4 DUP2 MLOAD DUP2 LT PUSH2 0x65D JUMPI PUSH2 0x65D PUSH2 0x15B7 JUMP JUMPDEST SWAP2 ISZERO ISZERO PUSH1 0x20 SWAP3 DUP4 MUL SWAP2 SWAP1 SWAP2 ADD SWAP1 SWAP2 ADD MSTORE POP PUSH1 0x1 ADD PUSH2 0x5F3 JUMP JUMPDEST POP SWAP5 SWAP4 POP POP POP POP JUMP JUMPDEST PUSH1 0x0 DUP3 JUMPDEST DUP3 DUP2 LT ISZERO PUSH2 0x76C JUMPI PUSH1 0x0 DUP7 DUP2 MSTORE PUSH1 0x20 DUP2 DUP2 MSTORE PUSH1 0x40 DUP1 DUP4 KECCAK256 DUP9 DUP5 MSTORE DUP3 MSTORE DUP1 DUP4 KECCAK256 DUP5 DUP5 MSTORE SWAP1 SWAP2 MSTORE SWAP1 KECCAK256 SLOAD PUSH1 0x1 PUSH1 0x1 PUSH1 0xA0 SHL SUB AND CALLER EQ PUSH2 0x6F9 JUMPI PUSH1 0x40 MLOAD PUSH3 0x461BCD PUSH1 0xE5 SHL DUP2 MSTORE PUSH1 0x20 PUSH1 0x4 DUP3 ADD MSTORE PUSH1 0x14 PUSH1 0x24 DUP3 ADD MSTORE PUSH20 0x2737BA103CB7BAB9103932B9B2B93B30BA34B7B7 PUSH1 0x61 SHL PUSH1 0x44 DUP3 ADD MSTORE PUSH1 0x64 ADD PUSH2 0x451 JUMP JUMPDEST PUSH1 0x40 DUP1 MLOAD PUSH1 0x60 DUP2 ADD DUP3 MSTORE PUSH1 0x0 DUP1 DUP3 MSTORE PUSH1 0x20 DUP1 DUP4 ADD DUP3 DUP2 MSTORE DUP4 DUP6 ADD DUP4 DUP2 MSTORE DUP12 DUP5 MSTORE DUP4 DUP4 MSTORE DUP6 DUP5 KECCAK256 DUP12 DUP6 MSTORE DUP4 MSTORE DUP6 DUP5 KECCAK256 DUP8 DUP6 MSTORE SWAP1 SWAP3 MSTORE SWAP4 SWAP1 SWAP2 KECCAK256 SWAP2 MLOAD DUP3 SLOAD SWAP4 MLOAD ISZERO ISZERO PUSH1 0x1 PUSH1 0xA0 SHL MUL PUSH1 0x1 PUSH1 0x1 PUSH1 0xA8 SHL SUB NOT SWAP1 SWAP5 AND PUSH1 0x1 PUSH1 0x1 PUSH1 0xA0 SHL SUB SWAP2 SWAP1 SWAP2 AND OR SWAP3 SWAP1 SWAP3 OR DUP2 SSTORE SWAP1 MLOAD PUSH1 0x1 SWAP2 DUP3 ADD SSTORE ADD PUSH2 0x683 JUMP JUMPDEST POP PUSH1 0x0 PUSH2 0x779 DUP5 DUP5 PUSH2 0x15E3 JUMP JUMPDEST SWAP1 POP PUSH1 0x6 SLOAD DUP2 PUSH2 0x789 SWAP2 SWAP1 PUSH2 0x15FC JUMP JUMPDEST CALLER PUSH1 0x0 SWAP1 DUP2 MSTORE PUSH1 0x3 PUSH1 0x20 MSTORE PUSH1 0x40 DUP2 KECCAK256 SWAP2 SWAP4 POP JUMPDEST DUP2 SLOAD DUP2 LT ISZERO PUSH2 0x94C JUMPI DUP8 PUSH1 0x4 DUP4 DUP4 DUP2 SLOAD DUP2 LT PUSH2 0x7BA JUMPI PUSH2 0x7BA PUSH2 0x15B7 JUMP JUMPDEST SWAP1 PUSH1 0x0 MSTORE PUSH1 0x20 PUSH1 0x0 KECCAK256 ADD SLOAD DUP2 SLOAD DUP2 LT PUSH2 0x7D5 JUMPI PUSH2 0x7D5 PUSH2 0x15B7 JUMP JUMPDEST SWAP1 PUSH1 0x0 MSTORE PUSH1 0x20 PUSH1 0x0 KECCAK256 SWAP1 PUSH1 0x5 MUL ADD PUSH1 0x0 ADD SLOAD EQ DUP1 ISZERO PUSH2 0x833 JUMPI POP DUP7 PUSH1 0x4 DUP4 DUP4 DUP2 SLOAD DUP2 LT PUSH2 0x804 JUMPI PUSH2 0x804 PUSH2 0x15B7 JUMP JUMPDEST SWAP1 PUSH1 0x0 MSTORE PUSH1 0x20 PUSH1 0x0 KECCAK256 ADD SLOAD DUP2 SLOAD DUP2 LT PUSH2 0x81F JUMPI PUSH2 0x81F PUSH2 0x15B7 JUMP JUMPDEST SWAP1 PUSH1 0x0 MSTORE PUSH1 0x20 PUSH1 0x0 KECCAK256 SWAP1 PUSH1 0x5 MUL ADD PUSH1 0x1 ADD SLOAD EQ JUMPDEST DUP1 ISZERO PUSH2 0x87E JUMPI POP DUP6 PUSH1 0x4 DUP4 DUP4 DUP2 SLOAD DUP2 LT PUSH2 0x84F JUMPI PUSH2 0x84F PUSH2 0x15B7 JUMP JUMPDEST SWAP1 PUSH1 0x0 MSTORE PUSH1 0x20 PUSH1 0x0 KECCAK256 ADD SLOAD DUP2 SLOAD DUP2 LT PUSH2 0x86A JUMPI PUSH2 0x86A PUSH2 0x15B7 JUMP JUMPDEST SWAP1 PUSH1 0x0 MSTORE PUSH1 0x20 PUSH1 0x0 KECCAK256 SWAP1 PUSH1 0x5 MUL ADD PUSH1 0x2 ADD SLOAD EQ JUMPDEST DUP1 ISZERO PUSH2 0x8C9 JUMPI POP DUP5 PUSH1 0x4 DUP4 DUP4 DUP2 SLOAD DUP2 LT PUSH2 0x89A JUMPI PUSH2 0x89A PUSH2 0x15B7 JUMP JUMPDEST SWAP1 PUSH1 0x0 MSTORE PUSH1 0x20 PUSH1 0x0 KECCAK256 ADD SLOAD DUP2 SLOAD DUP2 LT PUSH2 0x8B5 JUMPI PUSH2 0x8B5 PUSH2 0x15B7 JUMP JUMPDEST SWAP1 PUSH1 0x0 MSTORE PUSH1 0x20 PUSH1 0x0 KECCAK256 SWAP1 PUSH1 0x5 MUL ADD PUSH1 0x3 ADD SLOAD EQ JUMPDEST ISZERO PUSH2 0x944 JUMPI DUP2 SLOAD DUP3 SWAP1 PUSH2 0x8DE SWAP1 PUSH1 0x1 SWAP1 PUSH2 0x15E3 JUMP JUMPDEST DUP2 SLOAD DUP2 LT PUSH2 0x8EE JUMPI PUSH2 0x8EE PUSH2 0x15B7 JUMP JUMPDEST SWAP1 PUSH1 0x0 MSTORE PUSH1 0x20 PUSH1 0x0 KECCAK256 ADD SLOAD DUP3 DUP3 DUP2 SLOAD DUP2 LT PUSH2 0x90B JUMPI PUSH2 0x90B PUSH2 0x15B7 JUMP JUMPDEST SWAP1 PUSH1 0x0 MSTORE PUSH1 0x20 PUSH1 0x0 KECCAK256 ADD DUP2 SWAP1 SSTORE POP DUP2 DUP1 SLOAD DUP1 PUSH2 0x929 JUMPI PUSH2 0x929 PUSH2 0x1613 JUMP JUMPDEST PUSH1 0x1 SWAP1 SUB DUP2 DUP2 SWAP1 PUSH1 0x0 MSTORE PUSH1 0x20 PUSH1 0x0 KECCAK256 ADD PUSH1 0x0 SWAP1 SSTORE SWAP1 SSTORE PUSH2 0x94C JUMP JUMPDEST PUSH1 0x1 ADD PUSH2 0x79C JUMP JUMPDEST POP PUSH1 0x40 MLOAD CALLER SWAP1 DUP5 ISZERO PUSH2 0x8FC MUL SWAP1 DUP6 SWAP1 PUSH1 0x0 DUP2 DUP2 DUP2 DUP6 DUP9 DUP9 CALL SWAP4 POP POP POP POP ISZERO DUP1 ISZERO PUSH2 0x97A JUMPI RETURNDATASIZE PUSH1 0x0 DUP1 RETURNDATACOPY RETURNDATASIZE PUSH1 0x0 REVERT JUMPDEST POP PUSH1 0x40 DUP1 MLOAD DUP9 DUP2 MSTORE PUSH1 0x20 DUP2 ADD DUP9 SWAP1 MSTORE SWAP1 DUP2 ADD DUP7 SWAP1 MSTORE PUSH1 0x60 DUP2 ADD DUP6 SWAP1 MSTORE PUSH1 0x0 PUSH1 0x80 DUP3 ADD MSTORE CALLER SWAP1 PUSH32 0xF123DE8AD58F6B3E819AF19A8A00391447C1F1E365F7072168D71CACE311089C SWAP1 PUSH1 0xA0 ADD PUSH1 0x40 MLOAD DUP1 SWAP2 SUB SWAP1 LOG2 POP POP POP POP POP POP POP JUMP JUMPDEST PUSH1 0x60 PUSH1 0x2 DUP1 SLOAD DUP1 PUSH1 0x20 MUL PUSH1 0x20 ADD PUSH1 0x40 MLOAD SWAP1 DUP2 ADD PUSH1 0x40 MSTORE DUP1 SWAP3 SWAP2 SWAP1 DUP2 DUP2 MSTORE PUSH1 0x20 ADD DUP3 DUP1 SLOAD DUP1 ISZERO PUSH2 0xA2D JUMPI PUSH1 0x20 MUL DUP3 ADD SWAP2 SWAP1 PUSH1 0x0 MSTORE PUSH1 0x20 PUSH1 0x0 KECCAK256 SWAP1 JUMPDEST DUP2 SLOAD PUSH1 0x1 PUSH1 0x1 PUSH1 0xA0 SHL SUB AND DUP2 MSTORE PUSH1 0x1 SWAP1 SWAP2 ADD SWAP1 PUSH1 0x20 ADD DUP1 DUP4 GT PUSH2 0xA0F JUMPI JUMPDEST POP POP POP POP POP SWAP1 POP SWAP1 JUMP JUMPDEST PUSH1 0x1 PUSH1 0x1 PUSH1 0xA0 SHL SUB DUP2 AND PUSH1 0x0 SWAP1 DUP2 MSTORE PUSH1 0x3 PUSH1 0x20 SWAP1 DUP2 MSTORE PUSH1 0x40 DUP1 DUP4 KECCAK256 DUP1 SLOAD DUP3 MLOAD DUP2 DUP6 MUL DUP2 ADD DUP6 ADD SWAP1 SWAP4 MSTORE DUP1 DUP4 MSTORE PUSH1 0x60 SWAP5 SWAP4 DUP4 ADD DUP3 DUP3 DUP1 ISZERO PUSH2 0xA96 JUMPI PUSH1 0x20 MUL DUP3 ADD SWAP2 SWAP1 PUSH1 0x0 MSTORE PUSH1 0x20 PUSH1 0x0 KECCAK256 SWAP1 JUMPDEST DUP2 SLOAD DUP2 MSTORE PUSH1 0x20 ADD SWAP1 PUSH1 0x1 ADD SWAP1 DUP1 DUP4 GT PUSH2 0xA82 JUMPI JUMPDEST POP POP POP POP POP SWAP1 POP PUSH1 0x0 DUP2 MLOAD PUSH8 0xFFFFFFFFFFFFFFFF DUP2 GT ISZERO PUSH2 0xAB9 JUMPI PUSH2 0xAB9 PUSH2 0x15A1 JUMP JUMPDEST PUSH1 0x40 MLOAD SWAP1 DUP1 DUP3 MSTORE DUP1 PUSH1 0x20 MUL PUSH1 0x20 ADD DUP3 ADD PUSH1 0x40 MSTORE DUP1 ISZERO PUSH2 0xB1F JUMPI DUP2 PUSH1 0x20 ADD JUMPDEST PUSH2 0xB0C PUSH1 0x40 MLOAD DUP1 PUSH1 0xA0 ADD PUSH1 0x40 MSTORE DUP1 PUSH1 0x0 DUP2 MSTORE PUSH1 0x20 ADD PUSH1 0x0 DUP2 MSTORE PUSH1 0x20 ADD PUSH1 0x0 DUP2 MSTORE PUSH1 0x20 ADD PUSH1 0x0 DUP2 MSTORE PUSH1 0x20 ADD PUSH1 0x0 DUP1 NOT AND DUP2 MSTORE POP SWAP1 JUMP JUMPDEST DUP2 MSTORE PUSH1 0x20 ADD SWAP1 PUSH1 0x1 SWAP1 SUB SWAP1 DUP2 PUSH2 0xAD7 JUMPI SWAP1 POP JUMPDEST POP SWAP1 POP PUSH1 0x0 JUMPDEST DUP3 MLOAD DUP2 LT ISZERO PUSH2 0xBCA JUMPI PUSH1 0x4 DUP4 DUP3 DUP2 MLOAD DUP2 LT PUSH2 0xB42 JUMPI PUSH2 0xB42 PUSH2 0x15B7 JUMP JUMPDEST PUSH1 0x20 MUL PUSH1 0x20 ADD ADD MLOAD DUP2 SLOAD DUP2 LT PUSH2 0xB5A JUMPI PUSH2 0xB5A PUSH2 0x15B7 JUMP JUMPDEST SWAP1 PUSH1 0x0 MSTORE PUSH1 0x20 PUSH1 0x0 KECCAK256 SWAP1 PUSH1 0x5 MUL ADD PUSH1 0x40 MLOAD DUP1 PUSH1 0xA0 ADD PUSH1 0x40 MSTORE SWAP1 DUP2 PUSH1 0x0 DUP3 ADD SLOAD DUP2 MSTORE PUSH1 0x20 ADD PUSH1 0x1 DUP3 ADD SLOAD DUP2 MSTORE PUSH1 0x20 ADD PUSH1 0x2 DUP3 ADD SLOAD DUP2 MSTORE PUSH1 0x20 ADD PUSH1 0x3 DUP3 ADD SLOAD DUP2 MSTORE PUSH1 0x20 ADD PUSH1 0x4 DUP3 ADD SLOAD DUP2 MSTORE POP POP DUP3 DUP3 DUP2 MLOAD DUP2 LT PUSH2 0xBB7 JUMPI PUSH2 0xBB7 PUSH2 0x15B7 JUMP JUMPDEST PUSH1 0x20 SWAP1 DUP2 MUL SWAP2 SWAP1 SWAP2 ADD ADD MSTORE PUSH1 0x1 ADD PUSH2 0xB25 JUMP JUMPDEST POP SWAP4 SWAP3 POP POP POP JUMP JUMPDEST CALLER PUSH1 0x1 PUSH1 0x1 PUSH1 0xA0 SHL SUB DUP3 AND EQ PUSH2 0xC2A JUMPI PUSH1 0x40 MLOAD PUSH3 0x461BCD PUSH1 0xE5 SHL DUP2 MSTORE PUSH1 0x20 PUSH1 0x4 DUP3 ADD DUP2 SWAP1 MSTORE PUSH1 0x24 DUP3 ADD MSTORE PUSH32 0x4F6E6C792074686520757365722063616E2072656D6F76652068696D73656C66 PUSH1 0x44 DUP3 ADD MSTORE PUSH1 0x64 ADD PUSH2 0x451 JUMP JUMPDEST PUSH1 0x1 PUSH1 0x1 PUSH1 0xA0 SHL SUB DUP2 AND PUSH1 0x0 SWAP1 DUP2 MSTORE PUSH1 0x1 PUSH1 0x20 MSTORE PUSH1 0x40 SWAP1 KECCAK256 SLOAD PUSH1 0xFF AND PUSH2 0xC8B JUMPI PUSH1 0x40 MLOAD PUSH3 0x461BCD PUSH1 0xE5 SHL DUP2 MSTORE PUSH1 0x20 PUSH1 0x4 DUP3 ADD MSTORE PUSH1 0x16 PUSH1 0x24 DUP3 ADD MSTORE PUSH22 0x155CD95C881A5CC81B9BDD081C9959DA5CDD195C9959 PUSH1 0x52 SHL PUSH1 0x44 DUP3 ADD MSTORE PUSH1 0x64 ADD PUSH2 0x451 JUMP JUMPDEST PUSH1 0x1 PUSH1 0x1 PUSH1 0xA0 SHL SUB DUP2 AND PUSH1 0x0 SWAP1 DUP2 MSTORE PUSH1 0x1 PUSH1 0x20 MSTORE PUSH1 0x40 DUP2 KECCAK256 DUP1 SLOAD PUSH1 0xFF NOT AND SWAP1 SSTORE JUMPDEST PUSH1 0x2 SLOAD DUP2 LT ISZERO PUSH2 0xDA6 JUMPI DUP2 PUSH1 0x1 PUSH1 0x1 PUSH1 0xA0 SHL SUB AND PUSH1 0x2 DUP3 DUP2 SLOAD DUP2 LT PUSH2 0xCD3 JUMPI PUSH2 0xCD3 PUSH2 0x15B7 JUMP JUMPDEST PUSH1 0x0 SWAP2 DUP3 MSTORE PUSH1 0x20 SWAP1 SWAP2 KECCAK256 ADD SLOAD PUSH1 0x1 PUSH1 0x1 PUSH1 0xA0 SHL SUB AND SUB PUSH2 0xD9E JUMPI PUSH1 0x2 DUP1 SLOAD PUSH2 0xCFD SWAP1 PUSH1 0x1 SWAP1 PUSH2 0x15E3 JUMP JUMPDEST DUP2 SLOAD DUP2 LT PUSH2 0xD0D JUMPI PUSH2 0xD0D PUSH2 0x15B7 JUMP JUMPDEST PUSH1 0x0 SWAP2 DUP3 MSTORE PUSH1 0x20 SWAP1 SWAP2 KECCAK256 ADD SLOAD PUSH1 0x2 DUP1 SLOAD PUSH1 0x1 PUSH1 0x1 PUSH1 0xA0 SHL SUB SWAP1 SWAP3 AND SWAP2 DUP4 SWAP1 DUP2 LT PUSH2 0xD39 JUMPI PUSH2 0xD39 PUSH2 0x15B7 JUMP JUMPDEST SWAP1 PUSH1 0x0 MSTORE PUSH1 0x20 PUSH1 0x0 KECCAK256 ADD PUSH1 0x0 PUSH2 0x100 EXP DUP2 SLOAD DUP2 PUSH1 0x1 PUSH1 0x1 PUSH1 0xA0 SHL SUB MUL NOT AND SWAP1 DUP4 PUSH1 0x1 PUSH1 0x1 PUSH1 0xA0 SHL SUB AND MUL OR SWAP1 SSTORE POP PUSH1 0x2 DUP1 SLOAD DUP1 PUSH2 0xD78 JUMPI PUSH2 0xD78 PUSH2 0x1613 JUMP JUMPDEST PUSH1 0x0 DUP3 DUP2 MSTORE PUSH1 0x20 SWAP1 KECCAK256 DUP2 ADD PUSH1 0x0 NOT SWAP1 DUP2 ADD DUP1 SLOAD PUSH1 0x1 PUSH1 0x1 PUSH1 0xA0 SHL SUB NOT AND SWAP1 SSTORE ADD SWAP1 SSTORE POP POP JUMP JUMPDEST PUSH1 0x1 ADD PUSH2 0xCAC JUMP JUMPDEST POP POP JUMP JUMPDEST PUSH1 0x2 DUP2 DUP2 SLOAD DUP2 LT PUSH2 0xDBA JUMPI PUSH1 0x0 DUP1 REVERT JUMPDEST PUSH1 0x0 SWAP2 DUP3 MSTORE PUSH1 0x20 SWAP1 SWAP2 KECCAK256 ADD SLOAD PUSH1 0x1 PUSH1 0x1 PUSH1 0xA0 SHL SUB AND SWAP1 POP DUP2 JUMP JUMPDEST PUSH1 0x3 PUSH1 0x20 MSTORE DUP2 PUSH1 0x0 MSTORE PUSH1 0x40 PUSH1 0x0 KECCAK256 DUP2 DUP2 SLOAD DUP2 LT PUSH2 0xDF0 JUMPI PUSH1 0x0 DUP1 REVERT JUMPDEST SWAP1 PUSH1 0x0 MSTORE PUSH1 0x20 PUSH1 0x0 KECCAK256 ADD PUSH1 0x0 SWAP2 POP SWAP2 POP POP SLOAD DUP2 JUMP JUMPDEST CALLER PUSH1 0x0 SWAP1 DUP2 MSTORE PUSH1 0x1 PUSH1 0x20 MSTORE PUSH1 0x40 DUP2 KECCAK256 SLOAD PUSH1 0xFF AND PUSH2 0xE5A JUMPI PUSH1 0x40 MLOAD PUSH3 0x461BCD PUSH1 0xE5 SHL DUP2 MSTORE PUSH1 0x20 PUSH1 0x4 DUP3 ADD MSTORE PUSH1 0x13 PUSH1 0x24 DUP3 ADD MSTORE PUSH19 0x155CD95C881B9BDD081C9959DA5CDD195C9959 PUSH1 0x6A SHL PUSH1 0x44 DUP3 ADD MSTORE PUSH1 0x64 ADD PUSH2 0x451 JUMP JUMPDEST DUP3 DUP3 GT PUSH2 0xE9E JUMPI PUSH1 0x40 MLOAD PUSH3 0x461BCD PUSH1 0xE5 SHL DUP2 MSTORE PUSH1 0x20 PUSH1 0x4 DUP3 ADD MSTORE PUSH1 0x12 PUSH1 0x24 DUP3 ADD MSTORE PUSH18 0x496E76616C69642074696D652072616E6765 PUSH1 0x70 SHL PUSH1 0x44 DUP3 ADD MSTORE PUSH1 0x64 ADD PUSH2 0x451 JUMP JUMPDEST PUSH1 0x0 PUSH2 0xEAA DUP5 DUP5 PUSH2 0x15E3 JUMP JUMPDEST SWAP1 POP PUSH1 0x0 PUSH1 0x6 SLOAD DUP3 PUSH2 0xEBC SWAP2 SWAP1 PUSH2 0x15FC JUMP JUMPDEST SWAP1 POP DUP1 CALLVALUE LT ISZERO PUSH2 0xF03 JUMPI PUSH1 0x40 MLOAD PUSH3 0x461BCD PUSH1 0xE5 SHL DUP2 MSTORE PUSH1 0x20 PUSH1 0x4 DUP3 ADD MSTORE PUSH1 0x12 PUSH1 0x24 DUP3 ADD MSTORE PUSH18 0x496E73756666696369656E742066756E6473 PUSH1 0x70 SHL PUSH1 0x44 DUP3 ADD MSTORE PUSH1 0x64 ADD PUSH2 0x451 JUMP JUMPDEST DUP5 JUMPDEST DUP5 DUP2 LT ISZERO PUSH2 0x100A JUMPI PUSH1 0x0 DUP9 DUP2 MSTORE PUSH1 0x20 DUP2 DUP2 MSTORE PUSH1 0x40 DUP1 DUP4 KECCAK256 DUP11 DUP5 MSTORE DUP3 MSTORE DUP1 DUP4 KECCAK256 DUP5 DUP5 MSTORE SWAP1 SWAP2 MSTORE SWAP1 KECCAK256 SLOAD PUSH1 0x1 PUSH1 0xA0 SHL SWAP1 DIV PUSH1 0xFF AND ISZERO PUSH2 0xF97 JUMPI PUSH1 0x40 MLOAD PUSH3 0x461BCD PUSH1 0xE5 SHL DUP2 MSTORE PUSH1 0x20 PUSH1 0x4 DUP3 ADD MSTORE PUSH1 0x2A PUSH1 0x24 DUP3 ADD MSTORE PUSH32 0x4F6E65206F72206D6F72652074696D65736C6F74732061726520616C72656164 PUSH1 0x44 DUP3 ADD MSTORE PUSH10 0x1E481C995CD95C9D9959 PUSH1 0xB2 SHL PUSH1 0x64 DUP3 ADD MSTORE PUSH1 0x84 ADD PUSH2 0x451 JUMP JUMPDEST PUSH1 0x40 DUP1 MLOAD PUSH1 0x60 DUP2 ADD DUP3 MSTORE CALLER DUP2 MSTORE PUSH1 0x1 PUSH1 0x20 DUP1 DUP4 ADD DUP3 DUP2 MSTORE PUSH1 0x0 DUP5 DUP7 ADD DUP2 DUP2 MSTORE DUP15 DUP3 MSTORE DUP2 DUP5 MSTORE DUP7 DUP3 KECCAK256 DUP15 DUP4 MSTORE DUP5 MSTORE DUP7 DUP3 KECCAK256 DUP9 DUP4 MSTORE SWAP1 SWAP4 MSTORE SWAP5 SWAP1 SWAP5 KECCAK256 SWAP3 MLOAD DUP4 SLOAD SWAP5 MLOAD ISZERO ISZERO PUSH1 0x1 PUSH1 0xA0 SHL MUL PUSH1 0x1 PUSH1 0x1 PUSH1 0xA8 SHL SUB NOT SWAP1 SWAP6 AND PUSH1 0x1 PUSH1 0x1 PUSH1 0xA0 SHL SUB SWAP2 SWAP1 SWAP2 AND OR SWAP4 SWAP1 SWAP4 OR DUP3 SSTORE SWAP2 MLOAD SWAP1 DUP3 ADD SSTORE ADD PUSH2 0xF05 JUMP JUMPDEST POP PUSH1 0x40 MLOAD PUSH12 0xFFFFFFFFFFFFFFFFFFFFFFFF NOT CALLER PUSH1 0x60 SHL AND PUSH1 0x20 DUP3 ADD MSTORE PUSH1 0x34 DUP2 ADD DUP9 SWAP1 MSTORE PUSH1 0x54 DUP2 ADD DUP8 SWAP1 MSTORE PUSH1 0x74 DUP2 ADD DUP7 SWAP1 MSTORE PUSH1 0x94 DUP2 ADD DUP6 SWAP1 MSTORE TIMESTAMP PUSH1 0xB4 DUP3 ADD MSTORE PUSH1 0x0 SWAP1 PUSH1 0xD4 ADD PUSH1 0x40 DUP1 MLOAD PUSH1 0x1F NOT DUP2 DUP5 SUB ADD DUP2 MSTORE SWAP2 SWAP1 MSTORE DUP1 MLOAD PUSH1 0x20 SWAP1 SWAP2 ADD KECCAK256 SWAP1 POP DUP6 JUMPDEST DUP6 DUP2 LT ISZERO PUSH2 0x109F JUMPI PUSH1 0x0 DUP10 DUP2 MSTORE PUSH1 0x20 DUP2 DUP2 MSTORE PUSH1 0x40 DUP1 DUP4 KECCAK256 DUP12 DUP5 MSTORE DUP3 MSTORE DUP1 DUP4 KECCAK256 DUP5 DUP5 MSTORE SWAP1 SWAP2 MSTORE SWAP1 KECCAK256 PUSH1 0x1 SWAP1 DUP2 ADD DUP4 SWAP1 SSTORE ADD PUSH2 0x106A JUMP JUMPDEST POP PUSH1 0x40 DUP1 MLOAD PUSH1 0xA0 DUP2 ADD DUP3 MSTORE DUP10 DUP2 MSTORE PUSH1 0x20 DUP2 ADD DUP10 DUP2 MSTORE SWAP2 DUP2 ADD DUP9 DUP2 MSTORE PUSH1 0x60 DUP3 ADD DUP9 DUP2 MSTORE PUSH1 0x80 DUP4 ADD DUP6 DUP2 MSTORE PUSH1 0x4 DUP1 SLOAD PUSH1 0x1 DUP1 DUP3 ADD DUP4 SSTORE PUSH1 0x0 DUP4 DUP2 MSTORE DUP8 MLOAD PUSH32 0x8A35ACFBC15FF81A39AE7D344FD709F28E8600B4AA8C65C6B64BFE7FE36BD19B PUSH1 0x5 SWAP1 SWAP5 MUL SWAP4 DUP5 ADD SSTORE SWAP8 MLOAD PUSH32 0x8A35ACFBC15FF81A39AE7D344FD709F28E8600B4AA8C65C6B64BFE7FE36BD19C DUP4 ADD SSTORE SWAP5 MLOAD PUSH32 0x8A35ACFBC15FF81A39AE7D344FD709F28E8600B4AA8C65C6B64BFE7FE36BD19D DUP3 ADD SSTORE SWAP3 MLOAD PUSH32 0x8A35ACFBC15FF81A39AE7D344FD709F28E8600B4AA8C65C6B64BFE7FE36BD19E DUP5 ADD SSTORE SWAP1 MLOAD PUSH32 0x8A35ACFBC15FF81A39AE7D344FD709F28E8600B4AA8C65C6B64BFE7FE36BD19F SWAP1 SWAP3 ADD SWAP2 SWAP1 SWAP2 SSTORE SLOAD SWAP2 SWAP3 SWAP2 PUSH2 0x11AE SWAP2 SWAP1 PUSH2 0x15E3 JUMP JUMPDEST CALLER PUSH1 0x0 SWAP1 DUP2 MSTORE PUSH1 0x3 PUSH1 0x20 SWAP1 DUP2 MSTORE PUSH1 0x40 DUP3 KECCAK256 DUP1 SLOAD PUSH1 0x1 DUP2 ADD DUP3 SSTORE SWAP1 DUP4 MSTORE SWAP2 KECCAK256 ADD DUP2 SWAP1 SSTORE SWAP1 POP CALLVALUE DUP5 LT ISZERO PUSH2 0x1212 JUMPI CALLER PUSH2 0x8FC PUSH2 0x11E8 DUP7 CALLVALUE PUSH2 0x15E3 JUMP JUMPDEST PUSH1 0x40 MLOAD DUP2 ISZERO SWAP1 SWAP3 MUL SWAP2 PUSH1 0x0 DUP2 DUP2 DUP2 DUP6 DUP9 DUP9 CALL SWAP4 POP POP POP POP ISZERO DUP1 ISZERO PUSH2 0x1210 JUMPI RETURNDATASIZE PUSH1 0x0 DUP1 RETURNDATACOPY RETURNDATASIZE PUSH1 0x0 REVERT JUMPDEST POP JUMPDEST PUSH1 0x40 DUP1 MLOAD DUP12 DUP2 MSTORE PUSH1 0x20 DUP2 ADD DUP12 SWAP1 MSTORE SWAP1 DUP2 ADD DUP10 SWAP1 MSTORE PUSH1 0x60 DUP2 ADD DUP9 SWAP1 MSTORE PUSH1 0x80 DUP2 ADD DUP5 SWAP1 MSTORE CALLER SWAP1 PUSH32 0xF123DE8AD58F6B3E819AF19A8A00391447C1F1E365F7072168D71CACE311089C SWAP1 PUSH1 0xA0 ADD PUSH1 0x40 MLOAD DUP1 SWAP2 SUB SWAP1 LOG2 POP SWAP1 SWAP9 SWAP8 POP POP POP POP POP POP POP POP JUMP JUMPDEST PUSH1 0x7 SLOAD PUSH1 0x1 PUSH1 0x1 PUSH1 0xA0 SHL SUB AND CALLER EQ PUSH2 0x12CB JUMPI PUSH1 0x40 MLOAD PUSH3 0x461BCD PUSH1 0xE5 SHL DUP2 MSTORE PUSH1 0x20 PUSH1 0x4 DUP3 ADD MSTORE PUSH1 0x17 PUSH1 0x24 DUP3 ADD MSTORE PUSH32 0x43616C6C6572206973206E6F7420746865206F776E6572000000000000000000 PUSH1 0x44 DUP3 ADD MSTORE PUSH1 0x64 ADD PUSH2 0x451 JUMP JUMPDEST SELFBALANCE DUP1 PUSH2 0x1310 JUMPI PUSH1 0x40 MLOAD PUSH3 0x461BCD PUSH1 0xE5 SHL DUP2 MSTORE PUSH1 0x20 PUSH1 0x4 DUP3 ADD MSTORE PUSH1 0x14 PUSH1 0x24 DUP3 ADD MSTORE PUSH20 0x4E6F2066756E647320746F207265747269657665 PUSH1 0x60 SHL PUSH1 0x44 DUP3 ADD MSTORE PUSH1 0x64 ADD PUSH2 0x451 JUMP JUMPDEST PUSH1 0x7 SLOAD PUSH1 0x40 MLOAD PUSH1 0x1 PUSH1 0x1 PUSH1 0xA0 SHL SUB SWAP1 SWAP2 AND SWAP1 DUP3 ISZERO PUSH2 0x8FC MUL SWAP1 DUP4 SWAP1 PUSH1 0x0 DUP2 DUP2 DUP2 DUP6 DUP9 DUP9 CALL SWAP4 POP POP POP POP ISZERO DUP1 ISZERO PUSH2 0x134A JUMPI RETURNDATASIZE PUSH1 0x0 DUP1 RETURNDATACOPY RETURNDATASIZE PUSH1 0x0 REVERT JUMPDEST POP PUSH1 0x7 SLOAD PUSH1 0x40 DUP1 MLOAD DUP4 DUP2 MSTORE PUSH1 0x1 PUSH1 0x1 PUSH1 0xA0 SHL SUB SWAP1 SWAP3 AND PUSH1 0x20 DUP4 ADD MSTORE PUSH32 0x73ECAEAD2E8F2145B39B824A5217F4A2F59134C26719B926C5190F973A110DEE SWAP2 ADD PUSH1 0x40 MLOAD DUP1 SWAP2 SUB SWAP1 LOG1 POP JUMP JUMPDEST PUSH1 0x4 DUP2 DUP2 SLOAD DUP2 LT PUSH2 0x13A3 JUMPI PUSH1 0x0 DUP1 REVERT JUMPDEST PUSH1 0x0 SWAP2 DUP3 MSTORE PUSH1 0x20 SWAP1 SWAP2 KECCAK256 PUSH1 0x5 SWAP1 SWAP2 MUL ADD DUP1 SLOAD PUSH1 0x1 DUP3 ADD SLOAD PUSH1 0x2 DUP4 ADD SLOAD PUSH1 0x3 DUP5 ADD SLOAD PUSH1 0x4 SWAP1 SWAP5 ADD SLOAD SWAP3 SWAP5 POP SWAP1 SWAP3 SWAP1 SWAP2 DUP6 JUMP JUMPDEST DUP1 CALLDATALOAD PUSH1 0x1 PUSH1 0x1 PUSH1 0xA0 SHL SUB DUP2 AND DUP2 EQ PUSH2 0x13EB JUMPI PUSH1 0x0 DUP1 REVERT JUMPDEST SWAP2 SWAP1 POP JUMP JUMPDEST PUSH1 0x0 PUSH1 0x20 DUP3 DUP5 SUB SLT ISZERO PUSH2 0x1402 JUMPI PUSH1 0x0 DUP1 REVERT JUMPDEST PUSH2 0x140B DUP3 PUSH2 0x13D4 JUMP JUMPDEST SWAP4 SWAP3 POP POP POP JUMP JUMPDEST PUSH1 0x0 DUP1 PUSH1 0x0 PUSH1 0x60 DUP5 DUP7 SUB SLT ISZERO PUSH2 0x1427 JUMPI PUSH1 0x0 DUP1 REVERT JUMPDEST POP POP DUP2 CALLDATALOAD SWAP4 PUSH1 0x20 DUP4 ADD CALLDATALOAD SWAP4 POP PUSH1 0x40 SWAP1 SWAP3 ADD CALLDATALOAD SWAP2 SWAP1 POP JUMP JUMPDEST PUSH1 0x20 DUP1 DUP3 MSTORE DUP3 MLOAD DUP3 DUP3 ADD DUP2 SWAP1 MSTORE PUSH1 0x0 SWAP2 DUP5 ADD SWAP1 PUSH1 0x40 DUP5 ADD SWAP1 DUP4 JUMPDEST DUP2 DUP2 LT ISZERO PUSH2 0x1478 JUMPI DUP4 MLOAD ISZERO ISZERO DUP4 MSTORE PUSH1 0x20 SWAP4 DUP5 ADD SWAP4 SWAP1 SWAP3 ADD SWAP2 PUSH1 0x1 ADD PUSH2 0x1458 JUMP JUMPDEST POP SWAP1 SWAP6 SWAP5 POP POP POP POP POP JUMP JUMPDEST PUSH1 0x0 DUP1 PUSH1 0x0 DUP1 PUSH1 0x80 DUP6 DUP8 SUB SLT ISZERO PUSH2 0x1499 JUMPI PUSH1 0x0 DUP1 REVERT JUMPDEST POP POP DUP3 CALLDATALOAD SWAP5 PUSH1 0x20 DUP5 ADD CALLDATALOAD SWAP5 POP PUSH1 0x40 DUP5 ADD CALLDATALOAD SWAP4 PUSH1 0x60 ADD CALLDATALOAD SWAP3 POP SWAP1 POP JUMP JUMPDEST PUSH1 0x20 DUP1 DUP3 MSTORE DUP3 MLOAD DUP3 DUP3 ADD DUP2 SWAP1 MSTORE PUSH1 0x0 SWAP2 DUP5 ADD SWAP1 PUSH1 0x40 DUP5 ADD SWAP1 DUP4 JUMPDEST DUP2 DUP2 LT ISZERO PUSH2 0x1478 JUMPI DUP4 MLOAD PUSH1 0x1 PUSH1 0x1 PUSH1 0xA0 SHL SUB AND DUP4 MSTORE PUSH1 0x20 SWAP4 DUP5 ADD SWAP4 SWAP1 SWAP3 ADD SWAP2 PUSH1 0x1 ADD PUSH2 0x14CF JUMP JUMPDEST PUSH1 0x20 DUP1 DUP3 MSTORE DUP3 MLOAD DUP3 DUP3 ADD DUP2 SWAP1 MSTORE PUSH1 0x0 SWAP2 DUP5 ADD SWAP1 PUSH1 0x40 DUP5 ADD SWAP1 DUP4 JUMPDEST DUP2 DUP2 LT ISZERO PUSH2 0x1478 JUMPI DUP4 MLOAD DUP1 MLOAD DUP5 MSTORE PUSH1 0x20 DUP2 ADD MLOAD PUSH1 0x20 DUP6 ADD MSTORE PUSH1 0x40 DUP2 ADD MLOAD PUSH1 0x40 DUP6 ADD MSTORE PUSH1 0x60 DUP2 ADD MLOAD PUSH1 0x60 DUP6 ADD MSTORE PUSH1 0x80 DUP2 ADD MLOAD PUSH1 0x80 DUP6 ADD MSTORE POP PUSH1 0xA0 DUP4 ADD SWAP3 POP PUSH1 0x20 DUP5 ADD SWAP4 POP PUSH1 0x1 DUP2 ADD SWAP1 POP PUSH2 0x1510 JUMP JUMPDEST PUSH1 0x0 PUSH1 0x20 DUP3 DUP5 SUB SLT ISZERO PUSH2 0x1570 JUMPI PUSH1 0x0 DUP1 REVERT JUMPDEST POP CALLDATALOAD SWAP2 SWAP1 POP JUMP JUMPDEST PUSH1 0x0 DUP1 PUSH1 0x40 DUP4 DUP6 SUB SLT ISZERO PUSH2 0x158A JUMPI PUSH1 0x0 DUP1 REVERT JUMPDEST PUSH2 0x1593 DUP4 PUSH2 0x13D4 JUMP JUMPDEST SWAP5 PUSH1 0x20 SWAP4 SWAP1 SWAP4 ADD CALLDATALOAD SWAP4 POP POP POP JUMP JUMPDEST PUSH4 0x4E487B71 PUSH1 0xE0 SHL PUSH1 0x0 MSTORE PUSH1 0x41 PUSH1 0x4 MSTORE PUSH1 0x24 PUSH1 0x0 REVERT JUMPDEST PUSH4 0x4E487B71 PUSH1 0xE0 SHL PUSH1 0x0 MSTORE PUSH1 0x32 PUSH1 0x4 MSTORE PUSH1 0x24 PUSH1 0x0 REVERT JUMPDEST PUSH4 0x4E487B71 PUSH1 0xE0 SHL PUSH1 0x0 MSTORE PUSH1 0x11 PUSH1 0x4 MSTORE PUSH1 0x24 PUSH1 0x0 REVERT JUMPDEST DUP2 DUP2 SUB DUP2 DUP2 GT ISZERO PUSH2 0x15F6 JUMPI PUSH2 0x15F6 PUSH2 0x15CD JUMP JUMPDEST SWAP3 SWAP2 POP POP JUMP JUMPDEST DUP1 DUP3 MUL DUP2 ISZERO DUP3 DUP3 DIV DUP5 EQ OR PUSH2 0x15F6 JUMPI PUSH2 0x15F6 PUSH2 0x15CD JUMP JUMPDEST PUSH4 0x4E487B71 PUSH1 0xE0 SHL PUSH1 0x0 MSTORE PUSH1 0x31 PUSH1 0x4 MSTORE PUSH1 0x24 PUSH1 0x0 REVERT INVALID LOG2 PUSH5 0x6970667358 0x22 SLT KECCAK256 PUSH1 0xAC DUP10 DUP10 0xE EXP DUP9 0xE3 0xD 0xAB 0xA5 0xC3 0xEC 0xE4 0xD5 CODECOPY DUP4 CODECOPY 0xB1 0xE4 0xB5 SWAP3 0xBE XOR 0xC1 JUMP 0xD6 INVALID 0xF8 0xEC MSIZE POP PUSH5 0x736F6C6343 STOP ADDMOD SHR STOP CALLER ","sha1":"b205edf33889c2f72544979c27413045c8ec770a","source":"// SPDX-License-Identifier: MIT\npragma solidity ^0.8.0;\n\ncontract SmartCarPark {\n\n\n    // Modifier to restrict access to only the owner\n    modifier onlyOwner() {\n        require(msg.sender == owner, \"Caller is not the owner\");\n        _;\n    }\n\n    // Struct to store individual reservation details\n    struct Reservation {\n        address user; // Address of the user who made the reservation\n        bool isReserved; // Indicates if the slot is reserved\n        bytes32 accessCode; // Unique access code for the reservation\n    }\n\n    // Struct to store comprehensive reservation information\n    struct ReservationInfo {\n        uint256 spotId; // ID of the parking spot\n        uint256 date; // Date of the reservation\n        uint256 startSlot; // Start time slot of the reservation\n        uint256 endSlot; // End time slot of the reservation\n        bytes32 accessCode; // Unique access code for the reservation\n    }\n\n    // Struct to store payment\n    struct PaymentInfo{\n        address user;\n        uint256 amount;\n        uint256 spotId;\n        uint256 startSlot;\n        uint256 endSlot;\n    }\n\n    // Mapping to store reservation details by spot, date, and timeslot\n    mapping(uint256 => mapping(uint256 => mapping(uint256 => Reservation)))\n        public reservations;\n\n    // Mapping to track registered users\n    mapping(address => bool) public registeredUsers;\n\n    // Array to store the list of registered users\n    address[] public userList;\n\n    // Mapping to store reservation IDs for each user\n    mapping(address => uint256[]) public userReservations;\n\n    // Array to store all reservation information\n    ReservationInfo[] public allReservations;\n\n    // Total parking spots and cost per timeslot\n    uint256 public totalSpots;\n    uint256 public slotPrice;\n\n    // Owner of the contract for access control\n    address public owner;\n\n    // Constructor to initialize parking spots and slot price\n    constructor(uint256 _totalSpots, uint256 _slotPrice) {\n        owner = msg.sender; // Assign the deployer as the owner\n        totalSpots = _totalSpots; // Total available parking spots\n        slotPrice = _slotPrice; // Price for reserving a single slot\n    }\n\n    \n\n\n    // Event emitted on successful reservation\n    event Reserved(\n        address indexed user,\n        uint256 spotId,\n        uint256 date,\n        uint256 startSlot,\n        uint256 endSlot,\n        bytes32 accessCode\n    );\n\n    // Function to check availability for a range of timeslots on a given date\n    function checkSpotAvailability(\n        uint256 date,\n        uint256 startSlot,\n        uint256 endSlot\n    ) public view returns (bool[] memory) {\n        bool[] memory availability = new bool[](totalSpots); // Array to store availability status\n\n        for (uint256 spotId = 0; spotId < totalSpots; spotId++) {\n            bool isAvailable = true; // Assume the spot is available\n            for (uint256 slot = startSlot; slot < endSlot; slot++) {\n                if (reservations[spotId][date][slot].isReserved) {\n                    isAvailable = false; // Mark as unavailable if any slot is reserved\n                    break;\n                }\n            }\n            availability[spotId] = isAvailable; // Update the availability for the spot\n        }\n        return availability; // Return the availability status\n    }\n\n    // Function to reserve a parking spot for a specified range of timeslots\nfunction reserveSpot(\n    uint256 spotId,\n    uint256 date,\n    uint256 startSlot,\n    uint256 endSlot\n) external payable returns (bytes32) {\n    require(registeredUsers[msg.sender], \"User not registered\"); // Ensure user is registered\n    require(endSlot > startSlot, \"Invalid time range\"); // Validate time range\n\n    uint256 totalDuration = endSlot - startSlot; // Calculate reservation duration\n    uint256 totalCost = totalDuration * slotPrice; // Calculate total cost\n\n    require(msg.value >= totalCost, \"Insufficient funds\"); // Ensure payment matches the cost\n\n    // Ensure all requested timeslots are available\n    for (uint256 slot = startSlot; slot < endSlot; slot++) {\n        require(\n            !reservations[spotId][date][slot].isReserved,\n            \"One or more timeslots are already reserved\"\n        );\n        reservations[spotId][date][slot] = Reservation(\n            msg.sender,\n            true,\n            bytes32(0)\n        ); // Reserve the slot\n    }\n\n    // Generate a unique access code for the reservation\n    bytes32 accessCode = keccak256(\n        abi.encodePacked(\n            msg.sender,\n            spotId,\n            date,\n            startSlot,\n            endSlot,\n            block.timestamp\n        )\n    );\n\n    // Assign access code to all reserved slots\n    for (uint256 slot = startSlot; slot < endSlot; slot++) {\n        reservations[spotId][date][slot].accessCode = accessCode;\n    }\n\n    // Store detailed reservation information\n    ReservationInfo memory newReservation = ReservationInfo(\n        spotId,\n        date,\n        startSlot,\n        endSlot,\n        accessCode\n    );\n    allReservations.push(newReservation); // Add to all reservations\n\n    uint256 reservationId = allReservations.length - 1; // Get reservation ID\n    userReservations[msg.sender].push(reservationId); // Link to user\n\n    // Refund excess payment if applicable\n    if (msg.value > totalCost) {\n        payable(msg.sender).transfer(msg.value - totalCost);\n    }\n\n    emit Reserved(msg.sender, spotId, date, startSlot, endSlot, accessCode);\n    return accessCode; // Return the access code to the user\n}\n\n\n    // Function to retrieve access code for a specific reservation slot\n    function getAccessCode(\n        uint256 spotId,\n        uint256 date,\n        uint256 timeSlot\n    ) external view returns (bytes32) {\n        require(\n            reservations[spotId][date][timeSlot].user == msg.sender,\n            \"Not your reservation\"\n        ); // Ensure caller owns the reservation\n        return reservations[spotId][date][timeSlot].accessCode; // Return the access code\n    }\n\n    // Function to get all reservations made by a specific user\n    function getUserReservations(\n        address user\n    ) external view returns (ReservationInfo[] memory) {\n        uint256[] memory reservationIds = userReservations[user]; // Get reservation IDs\n        ReservationInfo[] memory userReservationDetails = new ReservationInfo[](\n            reservationIds.length\n        );\n\n        for (uint256 i = 0; i < reservationIds.length; i++) {\n            userReservationDetails[i] = allReservations[reservationIds[i]];\n        }\n\n        return userReservationDetails; // Return user's reservation details\n    }\n\n    // Function to register a new user\n    function registerUser(address user) external {\n        require(msg.sender == user, \"Only the user can register user\"); // User must self-register\n        require(!registeredUsers[user], \"User is already registered\"); // Ensure user isn't already registered\n        registeredUsers[user] = true; // Mark user as registered\n        userList.push(user); // Add to user list\n    }\n\n    // Function to remove a user from the registered list\n    function removeUser(address user) external {\n        require(msg.sender == user, \"Only the user can remove himself\"); // User must self-remove\n        require(registeredUsers[user], \"User is not registered\"); // Ensure user is registered\n\n        registeredUsers[user] = false; // Remove from registration\n\n        // Remove user from the user list\n        for (uint256 i = 0; i < userList.length; i++) {\n            if (userList[i] == user) {\n                userList[i] = userList[userList.length - 1]; // Replace with last user\n                userList.pop(); // Remove last element\n                break;\n            }\n        }\n    }\n\n    // Function to get all registered users\n    function getRegisteredUsers() external view returns (address[] memory) {\n        return userList; // Return the list of users\n    }\n\n    // Function for the owner to retrieve all funds\n    event FundsRetrieved(uint amount, address to);\n\n    function retrievePayments() public onlyOwner {\n        uint balance = address(this).balance;\n        require(balance > 0, \"No funds to retrieve\");\n        payable(owner).transfer(balance);\n        emit FundsRetrieved(balance, owner);\n    }\n\n    function cancelReservation(\n        uint256 spotId,\n        uint256 date,\n        uint256 startSlot,\n        uint256 endSlot\n    ) external {\n        uint256 refundAmount = 0;\n\n        for (uint256 slot = startSlot; slot < endSlot; slot++) {\n            require(\n                reservations[spotId][date][slot].user == msg.sender,\n                \"Not your reservation\"\n            ); // Ensure caller owns the reservation\n\n            reservations[spotId][date][slot] = Reservation(address(0), false, bytes32(0)); // Free the slot\n        }\n\n        // Calculate refund amount\n        uint256 totalDuration = endSlot - startSlot;\n        refundAmount = totalDuration * slotPrice;\n\n        // Remove reservation from user's record\n        uint256[] storage userRes = userReservations[msg.sender];\n        for (uint256 i = 0; i < userRes.length; i++) {\n            if (\n                allReservations[userRes[i]].spotId == spotId &&\n                allReservations[userRes[i]].date == date &&\n                allReservations[userRes[i]].startSlot == startSlot &&\n                allReservations[userRes[i]].endSlot == endSlot\n            ) {\n                userRes[i] = userRes[userRes.length - 1];\n                userRes.pop();\n                break;\n            }\n        }\n\n        // Transfer refund to user\n        payable(msg.sender).transfer(refundAmount);\n\n        emit Reserved(msg.sender, spotId, date, startSlot, endSlot, bytes32(0));\n    }\n\n}\n","sourcePath":"contracts/SmartCarPark.sol","type":"contract","deployment":{"address":"0xa2d7560160Fa387Bb3e02A02C22D4B9C94E0689e","chainid":"5777","blockHeight":52}}